:020000040800F2
:1000000000500020D56E0008091C0008151C0008CF
:100010001B1C0008211C0008271C00080000000011
:100020000000000000000000000000002D1C00087F
:10003000391C000800000000451C0008511C000885
:100040001D6F00081D6F00081D6F00081D6F000860
:100050001D6F00081D6F00081D6F00081D6F000850
:100060001D6F00081D6F00081D6F00081D6F000840
:100070001D6F00081D6F00081D6F00081D6F000830
:100080001D6F00081D6F00081D6F00081D6F000820
:100090005D1C00081D6F00081D6F00081D6F000823
:1000A0001D6F00081D6F00081D6F00081D6F000800
:1000B0001D6F00081D6F00081D6F0008711C0008EF
:1000C000851C00081D6F00081D6F00081D6F0008CB
:1000D0001D6F0008991C00081D6F00081D6F0008A7
:1000E0001D6F00081D6F00081D6F00080000000054
:1000F0000000000000000000000000000000000000
:0C01000000000000000000005FF808F1A3
:1001100010B5054C237833B9044B13B10448AFF341
:1001200000800123237010BDE001002000000000CA
:100130008891000808B5034B1BB103490348AFF38E
:10014000008008BD00000000E40100208891000844
:10015000034613F8012B002AFBD1181A0138704707
:1001600081F0004102E000BF83F0004330B54FEA68
:1001700041044FEA430594EA050F08BF90EA020FD5
:100180001FBF54EA000C55EA020C7FEA645C7FEA68
:10019000655C00F0E2804FEA5454D4EB5555B8BF8B
:1001A0006D420CDD2C4480EA020281EA030382EAFC
:1001B000000083EA010180EA020281EA0303362D8E
:1001C00088BF30BD11F0004F4FEA01314FF4801C61
:1001D0004CEA113102D0404261EB410113F0004F73
:1001E0004FEA03334CEA133302D0524263EB43032A
:1001F00094EA050F00F0A780A4F10104D5F1200EC8
:100200000DDB02FA0EFC22FA05F2801841F1000122
:1002100003FA0EF2801843FA05F359410EE0A5F1F6
:1002200020050EF1200E012A03FA0EFC28BF4CF027
:10023000020C43FA05F3C01851EBE37101F00045DD
:1002400007D54FF0000EDCF1000C7EEB00006EEBEA
:100250000101B1F5801F1BD3B1F5001F0CD3490874
:100260005FEA30004FEA3C0C04F101044FEA4452CB
:1002700012F5800F80F09A80BCF1004F08BF5FEA52
:10028000500C50F1000041EB045141EA050130BD32
:100290005FEA4C0C404141EB010111F4801FA4F1D5
:1002A0000104E9D191F0000F04BF01460020B1FA2A
:1002B00081F308BF2033A3F10B03B3F120020CDA62
:1002C0000C3208DD02F1140CC2F10C0201FA0CF040
:1002D00021FA02F10CE002F11402D8BFC2F1200CA5
:1002E00001FA02F120FA0CFCDCBF41EA0C0190405B
:1002F000E41AA2BF01EB0451294330BD6FEA0404A4
:100300001F3C1CDA0C340EDC04F11404C4F120028E
:1003100020FA04F001FA02F340EA030021FA04F3A0
:1003200045EA030130BDC4F10C04C4F1200220FAF7
:1003300002F001FA04F340EA0300294630BD21FA35
:1003400004F0294630BD94F0000F83F4801306BFFB
:1003500081F480110134013D4EE77FEA645C18BFEF
:100360007FEA655C29D094EA050F08BF90EA020F86
:1003700005D054EA000C04BF1946104630BD91EA7E
:10038000030F1EBF0021002030BD5FEA545C05D181
:100390004000494128BF41F0004130BD14F58004C0
:1003A0003CBF01F5801130BD01F0004545F0FE4134
:1003B00041F470014FF0000030BD7FEA645C1ABF69
:1003C000194610467FEA655C1CBF0B46024650EAA0
:1003D000013406BF52EA033591EA030F41F40021CC
:1003E00030BD00BF90F0000F04BF0021704730B552
:1003F0004FF4806404F132044FF000054FF0000127
:1004000050E700BF90F0000F04BF0021704730B5E7
:100410004FF4806404F1320410F0004548BF4042BC
:100420004FF000013EE700BF42004FEAE2014FEA11
:1004300031014FEA02701FBF12F07F4393F07F4FEC
:1004400081F06051704792F0000F14BF93F07F4F1E
:10045000704730B54FF4607401F0004521F0004161
:1004600020E700BF50EA010208BF704730B54FF0E7
:1004700000050AE050EA010208BF704730B511F0EC
:10048000004502D5404261EB41014FF4806404F124
:1004900032045FEA915C3FF4DCAE4FF003025FEAA6
:1004A000DC0C18BF03325FEADC0C18BF033202EB2E
:1004B000DC02C2F1200300FA03FC20FA02F001FA88
:1004C00003FE40EA0E0021FA02F11444C1E600BF27
:1004D00070B54FF0FF0C4CF4E06C1CEA11541DBFDA
:1004E0001CEA135594EA0C0F95EA0C0F00F0DEF8A5
:1004F0002C4481EA030621EA4C5123EA4C5350EA8A
:10050000013518BF52EA033541F4801143F48013DA
:1005100038D0A0FB02CE4FF00005E1FB02E506F06B
:100520000042E0FB03E54FF00006E1FB03569CF0C0
:10053000000F18BF4EF0010EA4F1FF04B6F5007FC6
:1005400064F5407404D25FEA4E0E6D4146EB060638
:1005500042EAC62141EA55514FEAC52040EA5E50C1
:100560004FEACE2EB4F1FD0C88BFBCF5E06F1ED86B
:10057000BEF1004F08BF5FEA500E50F1000041EBA2
:10058000045170BD06F0004646EA010140EA02004F
:1005900081EA0301B4EB5C04C2BFD4EB0C0541EA71
:1005A000045170BD41F480114FF0000E013C00F386
:1005B000AB8014F1360FDEBF002001F0004170BDAA
:1005C000C4F10004203C35DA0C341BDC04F11404C3
:1005D000C4F1200500FA05F320FA04F001FA05F24F
:1005E00040EA020001F0004221F0004110EBD3701C
:1005F00021FA04F642EB06015EEA430E08BF20EA48
:10060000D37070BDC4F10C04C4F1200500FA04F3EA
:1006100020FA05F001FA04F240EA020001F000417C
:1006200010EBD37041F100015EEA430E08BF20EAEF
:10063000D37070BDC4F1200500FA05F24EEA020E37
:1006400020FA04F301FA05F243EA020321FA04F066
:1006500001F0004121FA04F220EA020000EBD3701D
:100660005EEA430E08BF20EAD37070BD94F0000F1D
:100670000FD101F00046400041EB010111F4801F51
:1006800008BF013CF7D041EA060195F0000F18BF02
:10069000704703F00046520043EB030313F4801F3E
:1006A00008BF013DF7D043EA0603704794EA0C0FF8
:1006B0000CEA135518BF95EA0C0F0CD050EA41060E
:1006C00018BF52EA4306D1D181EA030101F000418B
:1006D0004FF0000070BD50EA410606BF10461946B3
:1006E00052EA430619D094EA0C0F02D150EA0136BF
:1006F00013D195EA0C0F05D152EA03361CBF104600
:1007000019460AD181EA030101F0004141F0FE419E
:1007100041F470014FF0000070BD41F0FE4141F422
:10072000780170BD70B54FF0FF0C4CF4E06C1CEA22
:1007300011541DBF1CEA135594EA0C0F95EA0C0FD7
:1007400000F0A7F8A4EB050481EA030E52EA033592
:100750004FEA013100F088804FEA03334FF08055B3
:1007600045EA131343EA12634FEA022245EA1115E0
:1007700045EA10654FEA00260EF000419D4208BF91
:10078000964244F1FD0404F5407402D25B084FEA3E
:100790003202B61A65EB03055B084FEA32024FF4EA
:1007A00080104FF4002CB6EB020E75EB030E22BF47
:1007B000B61A754640EA0C005B084FEA3202B6EB07
:1007C000020E75EB030E22BFB61A754640EA5C00B6
:1007D0005B084FEA3202B6EB020E75EB030E22BF46
:1007E000B61A754640EA9C005B084FEA3202B6EB47
:1007F000020E75EB030E22BFB61A754640EADC0006
:1008000055EA060E18D04FEA051545EA16754FEA67
:1008100006164FEAC30343EA52734FEAC2025FEA85
:100820001C1CC0D111F4801F0BD141EA00014FF014
:1008300000004FF0004CB6E711F4801F04BF0143E5
:100840000020B4F1FD0C88BFBCF5E06F3FF6AFAE01
:10085000B5EB030C04BFB6EB020C5FEA500C50F191
:10086000000041EB045170BD0EF0004E4EEA113114
:1008700014EB5C04C2BFD4EB0C0541EA045170BD1B
:1008800041F480114FF0000E013C90E645EA060E5F
:100890008DE60CEA135594EA0C0F08BF95EA0C0F8D
:1008A0003FF43BAF94EA0C0F0AD150EA01347FF4D5
:1008B00034AF95EA0C0F7FF425AF104619462CE7AC
:1008C00095EA0C0F06D152EA03353FF4FDAE10460F
:1008D000194622E750EA410618BF52EA43067FF460
:1008E000C5AE50EA41047FF40DAF52EA43057FF4F0
:1008F000EBAE12E74FF0FF3C06E000BF4FF0010CFB
:1009000002E000BF4FF0010C4DF804CD4FEA410C5E
:100910007FEA6C5C4FEA430C18BF7FEA6C5C1BD02B
:1009200001B050EA410C0CBF52EA430C91EA030FAC
:1009300002BF90EA020F0020704710F1000F91EA09
:10094000030F58BF994208BF90422CBFD8176FEAD7
:10095000E37040F0010070474FEA410C7FEA6C5CA5
:1009600002D150EA013C07D14FEA430C7FEA6C5CAC
:10097000D6D152EA033CD3D05DF8040B704700BFD8
:100980008446104662468C461946634600E000BF26
:1009900001B5FFF7B7FF002848BF10F1000F01BDF8
:1009A0004DF808EDFFF7F4FF0CBF012000205DF8C3
:1009B00008FB00BF4DF808EDFFF7EAFF34BF012048
:1009C00000205DF808FB00BF4DF808EDFFF7E0FFE1
:1009D00094BF012000205DF808FB00BF4DF808ED32
:1009E000FFF7CEFF94BF012000205DF808FB00BF99
:1009F0004DF808EDFFF7C4FF34BF012000205DF87B
:100A000008FB00BF4FEA410C7FEA6C5C02D150EA60
:100A1000013C0AD14FEA430C7FEA6C5C02D152EAF6
:100A2000033C02D14FF0000070474FF001007047C7
:100A30004FEA410212F5001215D211D56FF4787306
:100A4000B3EB625212D94FEAC12343F0004343EAA9
:100A5000505311F0004F23FA02F018BF4042704784
:100A60004FF00000704750EA013005D111F000400E
:100A700008BF6FF0004070474FF00000704700BFA4
:100A80004FEA4102B2F1E04324BFB3F5001CDCF1B0
:100A9000FE5C0DD901F0004C4FEAC0024CEA5070E8
:100AA000B2F1004F40EB830008BF20F00100704717
:100AB00011F0804F21D113F13872BCBF01F000401A
:100AC000704741F480114FEA5252C2F11802C2F14C
:100AD000200C10FA0CF320FA02F018BF40F00100CD
:100AE0004FEAC1234FEAD32303FA0CFC40EA0C007F
:100AF00023FA02F34FEA4303CCE77FEA625307D1BC
:100B000050EA01331EBF4FF0FE4040F440007047F2
:100B100001F0004040F0FE4040F40000704700BF8C
:100B200080F0004002E000BF81F0004142001FBFA2
:100B30005FEA410392EA030F7FEA226C7FEA236CAB
:100B40006AD04FEA1262D2EB1363C1BFD2184140A0
:100B500048404140B8BF5B42192B88BF704710F036
:100B6000004F40F4000020F07F4018BF404211F0D9
:100B7000004F41F4000121F07F4118BF494292EA41
:100B8000030F3FD0A2F1010241FA03FC10EB0C006D
:100B9000C3F1200301FA03F100F0004302D54942FA
:100BA00060EB4000B0F5000F13D3B0F1807F06D3A7
:100BB00040084FEA310102F10102FE2A51D2B1F19F
:100BC000004F40EBC25008BF20F0010040EA030094
:100BD0007047490040EB000010F4000FA2F1010241
:100BE000EDD1B0FA80FCACF1080CB2EB0C0200FACB
:100BF0000CF0AABF00EBC25052421843BCBFD04019
:100C00001843704792F0000F81F4000106BF80F492
:100C100000000132013BB5E74FEA41037FEA226C55
:100C200018BF7FEA236C21D092EA030F04D092F020
:100C3000000F08BF0846704790EA010F1CBF002054
:100C4000704712F07F4F04D1400028BF40F00040B1
:100C5000704712F100723CBF00F50000704700F0D1
:100C6000004343F0FE4040F4000070477FEA2262F8
:100C700016BF08467FEA23630146420206BF5FEAC9
:100C8000412390EA010F40F4800070474FF00003C9
:100C900004E000BF10F0004348BF40425FEA000C90
:100CA00008BF704743F0964301464FF000001CE038
:100CB00050EA010208BF70474FF000030AE000BF8E
:100CC00050EA010208BF704711F0004302D54042CC
:100CD00061EB41015FEA010C02BF8446014600203E
:100CE00043F0B64308BFA3F18053A3F50003BCFA59
:100CF0008CF2083AA3EBC25310DB01FA02FC634406
:100D000000FA02FCC2F12002BCF1004F20FA02F20C
:100D100043EB020008BF20F00100704702F12002FF
:100D200001FA02FCC2F1200250EA4C0021FA02F260
:100D300043EB020008BF20EADC70704742000ED28D
:100D4000B2F1FE4F0BD34FF09E03B3EB126209D406
:100D50004FEA002343F0004323FA02F070474FF0BC
:100D60000000704712F1610F01D1420202D14FF031
:100D7000FF3070474FF00000704700BF80B500AFF4
:100D8000174B184A1A60164B01225A60144B002266
:100D90009A60134B0022DA60114B4FF440221A6123
:100DA0000F4B4FF480125A610D4B00221A760C4BF8
:100DB00000225A760A4B00229A76094B0122DA76F3
:100DC000074B00221A77064B00225A77044801F09D
:100DD000F1F80346002B01D000F0BCF900BF80BD44
:100DE000180200200064004080B58AB000AF78602F
:100DF00007F1140300221A605A609A60DA607B6877
:100E00001B68294A93424BD1284A284BDB6943F09F
:100E10000073D361254BDB6903F000733B613B69D1
:100E2000224A224B9B6943F0080393611F4B9B6945
:100E300003F00803FB60FB684FF480737B610023C1
:100E4000BB610023FB6107F114031946184802F047
:100E5000EDF84FF400737B610223BB6103233B6217
:100E600007F114031946124802F0E0F8114B5B68D1
:100E70007B627B6A23F4C0437B627B6A43F0E0635E
:100E80007B627B6A43F480437B620A4A7B6A5360DD
:100E900000220021142001F0D0FD142001F0E9FD12
:100EA00000BF2837BD4680BD0064004000100240EE
:100EB000000C01400000014080B588B000AF07F190
:100EC000100300221A605A609A60DA602F4A2F4B92
:100ED0009B6943F0100393612C4B9B6903F0100353
:100EE000FB60FB68294A294B9B6943F00803936127
:100EF000264B9B6903F00803BB60BB68234A234B66
:100F00009B6943F004039361204B9B6903F0040346
:100F10007B607B6800224FF400511D4802F0E0F92D
:100F200001224FF480511B4802F0DAF94FF40053CC
:100F30003B6101237B610023BB610223FB6107F15D
:100F400010031946124802F071F84FF480533B61C8
:100F500001237B610023BB610223FB6107F11003C6
:100F600019460C4802F062F84FF400533B6100232D
:100F70007B610023BB6107F110031946054802F0AD
:100F800055F800BF2037BD4680BD00BF00100240AD
:100F900000100140000C014080B500AF124B134A15
:100FA0001A60114B124A5A600F4B00229A600E4B86
:100FB0008822DA600C4B4FF480421A610A4B0022FF
:100FC0005A61094B00229A61074B0022DA61064BF5
:100FD00000221A62044802F0B5F90346002B01D042
:100FE00000F0B8F800BF80BD40020020005400406F
:100FF000801A060080B588B000AF786007F1100352
:1010000000221A605A609A60DA607B681B681D4A89
:10101000934233D11C4A1C4B9B6943F008039361F4
:10102000194B9B6903F00803FB60FB68C0233B611D
:1010300012237B610323FB6107F110031946134858
:1010400001F0F4FF104A104BDB6943F40013D36145
:101050000D4BDB6903F40013BB60BB680022002169
:101060001F2001F0EAFC1F2001F003FD00220021F7
:10107000202001F0E2FC202001F0FBFC00BF203723
:10108000BD4680BD0054004000100240000C0140ED
:1010900080B500AF00F00AFF00F00FF8FFF70CFF7B
:1010A00000F08EFEFFF76AFEFFF776FF00F046F8CD
:1010B00000F056F800F086F8FCE780B590B000AF7D
:1010C00007F1180328220021184605F05EFF3B1D9A
:1010D00000221A605A609A60DA601A610223BB61CA
:1010E0000123BB621023FB6202237B630023BB63EB
:1010F0004FF46013FB6307F11803184604F096FDE4
:101100000346002B01D000F025F80F237B6002235B
:10111000BB600023FB604FF4C0633B6100237B6135
:101120003B1D0221184605F001F80346002B01D0B3
:1011300000F010F800BF4037BD4680BD80B500AF5D
:1011400000220021252001F078FC252001F091FCEF
:1011500000BF80BD80B400AF00BFBD4680BC7047FB
:1011600080B500AF114801F01FF8114800F0D0FD24
:1011700001221049104805F053FA01F0C7FD0F4B4A
:1011800040F23512DA6001F0E7FD0D4B0122DA7111
:101190000B4B02225A710A4B03229A71084B04220C
:1011A0001A8100F079FB00BF80BD00BF180200204B
:1011B000A8020020A40200206407002000200240B2
:1011C0009402002080B500AF00F022F800BF80BD7F
:1011D00080B582B000AF78607B681B68084A934294
:1011E0000AD1084B1B781946074800F0A7FD0122D9
:1011F0000449064805F014FA00BF0837BD4680BD13
:1012000000380140A4020020A8020020640700204A
:1012100080B582B000AF204800F0BFFD0346002B30
:1012200036D11D4800F0A2FD0346FB71FB793B2B34
:101230000ED14FF40051194802F06AF8184B012200
:101240001A60184B01221A70174AFB7913701FE0BD
:10125000FB790D2B0ED1134B00221A70104B1B681B
:101260001946114800F022F8402200210E4805F0EE
:101270008CFE0DE00B4B1B78012B09D1084B1B6832
:101280000949FA79CA54064B1B680133044A1360B2
:1012900000BF0837BD4680BDA802002000100140F5
:1012A0005C070020600700200007002080B594B094
:1012B00000AF786039607B68013310220221184644
:1012C00000F08AFA034687F84F3097F84F2007F16D
:1012D0000C034749184606F0C1FA07F10C031846FB
:1012E000FEF736FF0346A7F84C30B7F84C2007F15D
:1012F0000C010A233F4805F002F997F84F30062BFE
:1013000070D801A252F823F0251300082B1300080F
:10131000E51300083513000855130008751300087D
:10132000DF13000800F06AF85DE000F079FA00F0E1
:1013300097F858E0304B00229A727B6803331022F2
:101340000321184600F024FA02462B4BDA6000F025
:10135000A3FA48E0284B04229A727B6803331022D8
:101360000821184600F014FA0246234BDA6000F018
:1013700093FA38E07B68033310220121184600F00D
:1013800007FA0346DBB2013BDAB21B4BDA717B682A
:10139000043310220121184600F0FAF90346DBB2AB
:1013A000013BDAB2144B5A717B68053310220121DC
:1013B000184600F0EDF90346DBB2013BDAB20E4B02
:1013C0009A717B68063310220421184600F0E0F978
:1013D00003469AB2084B1A8100F05EFA03E000F06F
:1013E0009FF800E000BF00BF5037BD4680BD00BF82
:1013F000A09100086407002094020020B0B596B0C8
:1014000004AF144B1B781C46124B5B781D46114BE6
:101410009B781A460F4BDB7819460E4B1B79381D0B
:101420000293019100922B4622460B4906F016FAD0
:101430003B1D1846FEF78CFE0346A7F84630B7F86A
:101440004620391D0A23054805F059F800BF4837E2
:10145000BD46B0BD94020020AC9100086407002096
:10146000B0B596B004AF284B9B7A1A463B1D27496E
:10147000184606F0F3F9244B9B7A002B17D1224B28
:10148000DB79591C204B5B795C1C1F4B9B7901332A
:101490001D4A128915461C4AD268381D02920195D0
:1014A000009323460A461A4906F0D8F91AE0164B6B
:1014B0009B7A042B16D1144BDB791C46124B5B79BB
:1014C0001D46114B9B791A460F4B1B8919460E4B33
:1014D000DB68381D0293019100922B4622460D498C
:1014E00006F0BCF93B1D1846FEF732FE0346A7F88E
:1014F0004630B7F84620391D0A23074804F0FFFF9D
:1015000000BF4837BD46B0BD94020020C891000816
:10151000D4910008F091000864070020000000004A
:1015200090B59FB002AF4423A7F86E30B7F86E3085
:101530005B00A7F86C30B7F86E305B009BB20133EC
:10154000A7F86A30864B1B883B82E0233B7300235D
:101550007B73844A3B1D92E80300186004331980B2
:1015600007F11002B7F86C106423009302237E4841
:1015700002F020F80A2000F0FBFC07F10C02B7F89B
:101580006C10642300930223774802F013F800BF25
:10159000754802F0BFFD0346202BF9D13A1DB7F87C
:1015A0006A106423009306236F4802F001F93B7927
:1015B0001B021AB27B791BB213431BB2A7F8683027
:1015C000FB791B021AB23B7A1BB213431BB2A7F87A
:1015D0006630B7F868301846FFF758FB03461846E0
:1015E000FEF722FF5AA3D3E90023FFF79BF8034637
:1015F0000C461846214658A3D3E90023FEF768FF9E
:1016000003460C46184621464FF00002574BFEF7A2
:10161000ABFD03460C46184621464FF00002544BE2
:10162000FEF756FF03460C4618462146FFF728FAF8
:1016300003463B66B7F866301846FFF727FB0346BC
:101640001846FEF7F1FE4FF000024A4BFEF740FF4E
:1016500003460C46184621463DA3D3E90023FFF775
:1016600061F803460C46184621464FF00002404BF5
:10167000FEF72EFF03460C4618462146FFF700FAF8
:101680000346FB65386EFFF759FB0346A7F85A304F
:10169000F86DFFF753FB0346A7F85830B7F85A2008
:1016A000B7F8583007F11400334906F0D7F807F1BE
:1016B00014031846FEF74CFD0346A7F85630B7F85A
:1016C000562007F114010A232C4804F018FF2C4B74
:1016D0004FF481721A602A4B0022DA60284B0022F4
:1016E0009A60274B07221A61B7F85A30DAB2254BB5
:1016F0001A70B7F85A301B0A9BB2DAB2214B5A70F3
:10170000B7F85830DAB21F4B9A70B7F858301B0A46
:101710009BB2DAB21B4BDA701A4B00221A71194BCA
:1017200000225A71174B00229A71174800F056FE9A
:101730000246164B1A60154B124A1149124800F026
:1017400077FD00BF7437BD4690BD00BFAFF300808A
:1017500000000000E0FFEF400000000000E06540F6
:101760001C920008209200084002002000804640A1
:1017700000002440000059400C920008640700203B
:10178000B4060020AC06002018020020CC06002081
:1017900080B586B000AF78600B467B8013467B70C7
:1017A00000237B6107F10C0300221A605A607A88DB
:1017B00007F10C037968184605F0DCFB07F10C0310
:1017C00010220021184606F0EBF803467B617B6986
:1017D00018461837BD4680BD80B586B000AF78602A
:1017E0000B467B8013467B700023FB7507F10C03CF
:1017F00000221A605A607A8807F10C03796818464B
:1018000005F0B8FB07F10C0310220021184606F082
:10181000C7F80346FB75FB7D18461837BD4680BDEB
:1018200080B483B000AF1A4B7B607B681B683B6061
:10183000184A3B68D3607B6804331B683B603B6895
:10184000DAB2144B5A717B6808331B683B603B6803
:10185000DAB2104B9A717B680C331B683B603B68B3
:10186000DAB20C4BDA717B6810331B683B603B6863
:101870009AB2084B1A817B6814331B683B603B6843
:10188000DAB2044B9A7200BF0C37BD4680BC704779
:1018900000FC000894020020B0B594B000AFAF4B3C
:1018A000FB640023BB64AE4B00221A60AC4BAB4A16
:1018B0009A60AB4B0122DA6001F028FA3B461946E8
:1018C000A74801F00BFB0346002B08D03B1DA54A9F
:1018D0001C4615460FCD0FC42B68238007E03B1D27
:1018E000A14A1C4615460FCD0FC42B6823603B1D33
:1018F0001846FEF72DFC0346A7F84630B7F84620F9
:10190000391D0A23994804F0FAFD994BDB684FF022
:1019100000041A462346F96C022001F087F90346B9
:10192000BB64BB6C002B0AD13B1D924A92E80300BA
:1019300018600433198002330A0C1A7005E03B1D4D
:10194000BA6C8D49184605F089FF3B1D1846FEF715
:10195000FFFB0346A7F84630B7F84620391D0A2397
:10196000824804F0CCFDFB6C191D814B5B79DBB226
:101970004FF000041A462346022001F057F90346AF
:10198000BB64BB6C002B0AD13B1D7C4A92E8030070
:1019900018600433198002330A0C1A7005E03B1DED
:1019A000BA6C7749184605F059FF3B1D1846FEF7FB
:1019B000CFFB0346A7F84630B7F84620391D0A2367
:1019C0006A4804F09CFDFB6C03F10801684B9B79AD
:1019D000DBB24FF000041A462346022001F026F93C
:1019E0000346BB64BB6C002B0AD13B1D654A92E8E1
:1019F000030018600433198002330A0C1A7005E0E2
:101A00003B1DBA6C6049184605F028FF3B1D18467F
:101A1000FEF79EFB0346A7F84630B7F84620391D6F
:101A20000A23524804F06BFDFB6C03F10C01504B90
:101A3000DB79DBB24FF000041A462346022001F0A6
:101A4000F5F80346BB64BB6C002B0AD13B1D4F4A23
:101A500092E8030018600433198002330A0C1A70EC
:101A600005E03B1DBA6C4A49184605F0F7FE3B1DE0
:101A70001846FEF76DFB0346A7F84630B7F8462038
:101A8000391D0A23394804F03AFDFB6C03F11001BB
:101A9000374B1B899BB24FF000041A4623460220A5
:101AA00001F0C4F80346BB64BB6C002B0AD13B1D9C
:101AB000384A92E8030018600433198002330A0C94
:101AC0001A7005E03B1DBA6C3349184605F0C6FE96
:101AD0003B1D1846FEF73CFB0346A7F84630B7F817
:101AE0004620391D0A23214804F009FDFB6C03F14F
:101AF00014011F4B9B7ADBB24FF000041A462346B9
:101B0000022001F093F80346BB64BB6C002B0AD1A2
:101B10003B1D224A92E80300186004331980023307
:101B20000A0C1A7005E03B1DBA6C1D49184605F0F9
:101B300095FE01F011F93B1D1846FEF709FB03461F
:101B4000A7F84630B7F84620391D0A23074804F0A5
:101B5000D6FC00BF5037BD46B0BD00BF00FC00083A
:101B6000FC010020289200083C9200086407002035
:101B700094020020509200085892000868920008D1
:101B800070920008809200088892000898920008DD
:101B9000A0920008B0920008B8920008C89200080D
:101BA000D092000880B485B000AF154A144B9B69F1
:101BB00043F001039361124B9B6903F00103BB6087
:101BC000BB680F4A0E4BDB6943F08053D3610C4B6B
:101BD000DB6903F080537B607B680A4B5B68FB60CA
:101BE000FB6823F0E063FB60FB6843F08063FB600D
:101BF000044AFB68536000BF1437BD4680BC704781
:101C0000001002400000014080B400AF00BFBD469C
:101C100080BC704780B400AFFEE780B400AFFEE741
:101C200080B400AFFEE780B400AFFEE780B400AF41
:101C300000BFBD4680BC704780B400AF00BFBD464A
:101C400080BC704780B400AF00BFBD4680BC704709
:101C500080B500AF00F070F900BF80BD80B500AF67
:101C6000024800F0EFFB00BF80BD00BF180200205B
:101C700080B500AF024801F0F5FF00BF80BD00BF96
:101C80004002002080B500AF024802F03EF900BFDC
:101C900080BD00BF4002002080B500AF024804F0C4
:101CA000EFFC00BF80BD00BF6407002080B584B09A
:101CB00000AF7860114B1B68002B02D10F4B104A0C
:101CC0001A600E4B1B68FB600C4B1A687B68134450
:101CD0006A46934207D905F023F902460C231360A4
:101CE0004FF0FF3306E0054B1A687B681344034A44
:101CF0001360FB6818461037BD4680BD0C020020FB
:101D0000D407002080B400AF00BFBD4680BC704740
:101D100080B582B000AF78607B6800221A707B6863
:101D200000225A707B6802334FF48062002118460B
:101D300005F02BF900BF0837BD4680BD80B483B0E5
:101D400000AF78600B46FB707B681B781A467B6897
:101D50001344FA789A707B681B780133DAB27B6897
:101D60001A7000BF0C37BD4680BC704780B485B088
:101D700000AF78607B685B781A467B6813449B7879
:101D8000FB737B685B780133DAB27B685A70FB7B4C
:101D900018461437BD4680BC704780B483B000AF8E
:101DA00078607B681A787B685B789A420CBF012365
:101DB0000023DBB218460C37BD4680BC70470000DC
:101DC00080B500AF114B124A1A60104B4FF4E1324C
:101DD0005A600E4B00229A600C4B0022DA600B4BCB
:101DE00000221A61094B0C225A61084B00229A61A9
:101DF000064B0022DA61054804F034FB0346002B51
:101E000001D0FFF7A7F900BF80BD00BF6407002025
:101E10000038014080B588B000AF786007F110034A
:101E200000221A605A609A60DA607B681B681C4A5C
:101E3000934231D11B4A1B4B9B6943F4804393610E
:101E4000184B9B6903F48043FB60FB68154A154BF4
:101E50009B6943F004039361124B9B6903F00403F5
:101E6000BB60BB684FF400733B6102237B610323BB
:101E7000FB6107F1100319460B4801F0D7F84FF446
:101E800080633B6100237B610023BB6107F110038A
:101E90001946054801F0CAF800BF2037BD4680BD8D
:101EA00000380140001002400008014080B500AF3A
:101EB000084A084B1B6843F010031360032000F02E
:101EC000B1FD002000F008F8FFF76CFE0023184673
:101ED00080BD00BF0020024080B582B000AF7860B6
:101EE000124B1A68124B1B7819464FF47A73B3FBE6
:101EF000F1F3B2FBF3F3184600F0C9FD0346002BE3
:101F000001D001230EE07B680F2B0AD800227968EC
:101F10004FF0FF3000F091FD064A7B68136000230C
:101F200000E0012318460837BD4680BD00000020B0
:101F3000080000200400002080B400AF054B1B788F
:101F40001A46054B1B681344034A136000BFBD4685
:101F500080BC704708000020A807002080B400AFB4
:101F6000024B1B681846BD4680BC7047A80700207E
:101F700080B584B000AF7860FFF7F0FFB8607B6891
:101F8000FB60FB68B3F1FF3F05D0094B1B781A4695
:101F9000FB681344FB6000BFFFF7E0FF0246BB682D
:101FA000D21AFB689A42F7D300BF1037BD4680BDF6
:101FB0000800002080B584B000AF78607B68002BFB
:101FC00001D10123ECE07B6893F82030DBB2002BD9
:101FD00002D17868FEF708FF7B681B687A68126890
:101FE000126842F001021A60FFF7B8FFF86012E0D1
:101FF000FFF7B4FF0246FB68D31A0A2B0BD97B68A4
:102000005B6A43F400327B685A627B68052283F87E
:1020100020200123C4E07B681B685B6803F0010398
:10202000002BE5D07B681B687A681268126822F082
:1020300002021A60FFF792FFF86012E0FFF78EFFCE
:102040000246FB68D31A0A2B0BD97B685B6A43F400
:1020500000327B685A627B68052283F820200123C6
:102060009EE07B681B685B6803F00203002BE5D1F0
:102070007B681B7E012B08D17B681B687A6812681D
:10208000126842F080021A6007E07B681B687A6879
:102090001268126822F080021A607B685B7E012B56
:1020A00008D17B681B687A681268126842F04002A7
:1020B0001A6007E07B681B687A681268126822F071
:1020C00040021A607B689B7E012B08D17B681B68ED
:1020D0007A681268126842F020021A6007E07B6892
:1020E0001B687A681268126822F020021A607B6806
:1020F000DB7E012B08D17B681B687A681268126846
:1021000022F010021A6007E07B681B687A68126888
:10211000126842F010021A607B681B7F012B08D105
:102120007B681B687A681268126842F008021A60BD
:1021300007E07B681B687A681268126822F0080260
:102140001A607B685B7F012B08D17B681B687A680B
:102150001268126842F004021A6007E07B681B688C
:102160007A681268126822F004021A607B681B68A1
:102170007A6891687A68D26811437A681269114363
:102180007A68526911437A685268013A0A43DA61FF
:102190007B6800225A627B68012283F8202000239A
:1021A00018461037BD4680BD80B584B000AF78605A
:1021B0007B6893F82030DBB2012B2ED17B680222A2
:1021C00083F820207B681B687A681268126822F006
:1021D00001021A60FFF7C2FEF86012E0FFF7BEFED0
:1021E0000246FB68D31A0A2B0BD97B685B6A43F45F
:1021F00000327B685A627B68052283F82020012325
:1022000012E07B681B685B6803F00103002BE5D1DB
:102210007B6800225A62002306E07B685B6A43F415
:1022200000227B685A62012318461037BD4680BDE4
:1022300080B489B000AFF860B9607A603B60FB6839
:1022400093F82030FB77FB681B689B68BB61FB7FC2
:10225000012B03D0FB7F022B40F0B480BB6903F05D
:102260008063002B0AD1BB6903F00063002B05D10A
:10227000BB6903F08053002B00F09C80BB691B0EF0
:1022800003F003037B617B69022B07D9FB685B6A60
:1022900043F40002FB685A6201239AE001227B6941
:1022A0009A403B681A60BB689B68002B0DD1FB68A5
:1022B0001968BB681B685A05BB68DB681A437B69F1
:1022C00018331B010B441A600FE0FB681968BB68E8
:1022D0005B68DA00BB689B681A43BB68DB681A431B
:1022E0007B6918331B010B441A60FB681968BB68D3
:1022F0001A697B6918331B010B4404331A60BB68ED
:102300001B7D012B11D1FB681968FB681A687B697A
:1023100018331B01134404331B6843F480727B6938
:1023200018331B010B4404331A60FB6819687B687F
:1023300007331B781A067B6806331B781B041A4385
:102340007B6805331B781B0213437A6804321278CA
:102350001A437B691B010B4403F5C6731A60FB68C3
:1023600019687B6803331B781A067B6802331B7875
:102370001B041A437B6801331B781B0213437A68E2
:1023800012781A437B691B010B4403F5C4731A606E
:10239000FB681968FB681A687B6918331B011344D2
:1023A0001B6843F001027B6918331B010B441A6060
:1023B00000230EE0FB685B6A43F40012FB685A627C
:1023C000012306E0FB685B6A43F48022FB685A62E3
:1023D000012318462437BD4680BC704780B485B0C1
:1023E00000AF78600023FB607B6893F82030FB72BD
:1023F000FB7A012B02D0FB7A022B1DD17B681B6874
:102400009B6803F08063002B02D0FB680133FB6004
:102410007B681B689B6803F00063002B02D0FB689D
:102420000133FB607B681B689B6803F08053002BC3
:1024300002D0FB680133FB60FB6818461437BD46C9
:1024400080BC704780B58AB000AF786000237B62A3
:102450007B681B685B693B627B681B685B68FB6130
:102460007B681B689B68BB617B681B68DB687B6162
:102470007B681B681B693B617B681B689B69FB6011
:102480003B6A03F00103002B7CD0BB6903F001031E
:10249000002B23D07B681B6801229A60BB6903F084
:1024A0000203002B03D0786800F07DF916E0BB69C9
:1024B00003F00403002B04D07B6A43F400637B62C7
:1024C0000CE0BB6903F00803002B04D07B6A43F4E3
:1024D00080537B6202E0786800F080F9BB6903F406
:1024E0008073002B24D07B681B684FF480729A6045
:1024F000BB6903F40073002B03D0786800F05CF92B
:1025000016E0BB6903F48063002B04D07B6A43F4BC
:1025100000537B620CE0BB6903F40063002B04D022
:102520007B6A43F480437B6202E0786800F05FF9E5
:10253000BB6903F48033002B24D07B681B684FF405
:1025400080329A60BB6903F40033002B03D07868B3
:1025500000F03BF916E0BB6903F48023002B04D0A4
:102560007B6A43F400437B620CE0BB6903F4002305
:10257000002B04D07B6A43F480337B6202E07868EE
:1025800000F03EF93B6A03F00803002B0CD07B6996
:1025900003F01003002B07D07B6A43F400737B62C7
:1025A0007B681B681022DA603B6A03F00403002B8F
:1025B0000BD07B6903F00803002B06D07B681B68F7
:1025C0000822DA60786800F02DF93B6A03F0020314
:1025D000002B09D07B681B68DB6803F00303002B2A
:1025E00002D0786800F015F93B6A03F04003002B35
:1025F0000CD03B6903F01003002B07D07B6A43F437
:1026000080637B627B681B6810221A613B6A03F05F
:102610002003002B0BD03B6903F00803002B06D0EE
:102620007B681B6808221A61786800F00DF93B6A24
:1026300003F01003002B09D07B681B681B6903F0B3
:102640000303002B02D0786800F0F5F83B6A03F42E
:102650000033002B0BD0FB6903F01003002B06D0D6
:102660007B681B6810225A60786800F0F6F83B6AB5
:1026700003F48033002B0BD0FB6903F00803002B1D
:1026800006D07B681B6808225A60786800F0EEF874
:102690003B6A03F40043002B75D0FB6903F004038D
:1026A000002B6CD03B6A03F48073002B08D0FB68CE
:1026B00003F00103002B03D07B6A43F001037B622C
:1026C0003B6A03F40073002B08D0FB6803F002039D
:1026D000002B03D07B6A43F002037B623B6A03F466
:1026E0008063002B08D0FB6803F00403002B03D0A9
:1026F0007B6A43F004037B623B6A03F40063002BB4
:102700003DD0FB6803F07003002B38D0FB6803F06A
:102710007003302B17D0302B04D8102B09D0202B6E
:102720000CD024E0502B18D0602B1BD0402B0FD0A6
:102730001DE07B6A43F008037B6218E07B6A43F08C
:1027400010037B6213E07B6A43F020037B620EE0A0
:102750007B6A43F040037B6209E07B6A43F08003BD
:102760007B6204E07B6A43F480737B6200BF7B681A
:102770001B687A681268926922F070029A617B681D
:102780001B6804225A607B6A002B08D07B685A6A57
:102790007B6A1A437B685A62786800F070F800BF61
:1027A0002837BD4680BD80B483B000AF786000BFDD
:1027B0000C37BD4680BC704780B483B000AF7860F2
:1027C00000BF0C37BD4680BC704780B483B000AFFB
:1027D000786000BF0C37BD4680BC704780B483B0C2
:1027E00000AF786000BF0C37BD4680BC704780B436
:1027F00083B000AF786000BF0C37BD4680BC704727
:1028000080B483B000AF786000BF0C37BD4680BC99
:10281000704780B483B000AF786000BF0C37BD460E
:1028200080BC704780B483B000AF786000BF0C37C5
:10283000BD4680BC704780B483B000AF786000BFF5
:102840000C37BD4680BC704780B483B000AF786061
:1028500000BF0C37BD4680BC704780B483B000AF6A
:10286000786000BF0C37BD4680BC704780B483B031
:1028700000AF786000BF0C37BD4680BC704780B4A5
:1028800083B000AF786000BF0C37BD4680BC704796
:1028900080B485B000AF78607B6803F00703FB600D
:1028A0000C4BDB68BB60BA684FF6FF031340BB609C
:1028B000FB681A02BB68134343F0BF6343F4003361
:1028C000BB60044ABB68D36000BF1437BD4680BC00
:1028D000704700BF00ED00E080B400AF044BDB6840
:1028E0001B0A03F007031846BD4680BC704700BFB3
:1028F00000ED00E080B483B000AF0346FB7197F9B0
:102900000730002B0BDB084997F907305B09FA7990
:1029100002F01F02012000FA02F241F8232000BF5A
:102920000C37BD4680BC704700E100E080B483B046
:1029300000AF03463960FB7197F90730002B0ADBC3
:102940000D4997F907303A68D2B21201D2B20B445E
:1029500083F800230AE00949FB7903F00F03043BE5
:102960003A68D2B21201D2B20B441A7600BF0C37C9
:10297000BD4680BC704700BF00E100E000ED00E014
:1029800080B489B000AFF860B9607A60FB6803F08A
:102990000703FB61FB69C3F10703042B28BF042372
:1029A000BB61FB690433062B02D9FB69033B00E0E2
:1029B00000237B610122BB6902FA03F35A1EBB6844
:1029C0001A407B699A4001217B6901FA03F3591E81
:1029D0007B680B40134318462437BD4680BC7047C4
:1029E00080B582B000AF78607B68013BB3F1807F37
:1029F00001D301230FE00A4A7B68013B53600F219A
:102A00004FF0FF30FFF792FF054B00229A60044B16
:102A100007221A60002318460837BD4680BD00BF54
:102A200010E000E080B582B000AF78607868FFF712
:102A30002FFF00BF0837BD4680BD80B586B000AF10
:102A40000346B9607A60FB7300237B61FFF744FFA4
:102A500078617A68B9687869FFF792FF024697F95A
:102A60000F3011461846FFF761FF00BF1837BD460B
:102A700080BD80B582B000AF0346FB7197F9073087
:102A80001846FFF737FF00BF0837BD4680BD80B549
:102A900082B000AF78607868FFF7A2FF034618465F
:102AA0000837BD4680BD80B485B000AF7860002394
:102AB000FB737B6893F82130022B08D07B680422DB
:102AC0009A637B68002283F82020012320E07B6842
:102AD0001B687A681268126822F00E021A607B681E
:102AE0001B687A681268126822F001021A607B681B
:102AF000DB6B7A68126C012101FA02F25A607B6882
:102B0000012283F821207B68002283F82020FB7BB0
:102B100018461437BD4680BC7047000080B584B0AD
:102B200000AF78600023FB737B6893F82130022BA1
:102B300005D07B6804229A630123FB7357E07B680E
:102B40001B687A681268126822F00E021A607B68AD
:102B50001B687A681268126822F001021A60264A1D
:102B60007B681B681946254B99422ED07B681B68F1
:102B70001946234B994226D07B681B681946214B86
:102B800099421DD07B681B6819461F4B994214D08F
:102B90007B681B6819461D4B99420BD07B681B68EC
:102BA00019461B4B994202D14FF480130EE04FF0AF
:102BB00080730BE04FF4803308E04FF4805305E05E
:102BC0004FF4807302E0102300E0012353607B6820
:102BD000012283F821207B68002283F820207B6873
:102BE0005B6B002B03D07B685B6B78689847FB7B43
:102BF00018461037BD4680BD000002400800024064
:102C00001C000240300002404400024058000240D4
:102C10006C00024080B483B000AF78607B6893F8AA
:102C2000213018460C37BD4680BC7047F0B587B0E0
:102C300000AFF860B960C7E900230123FB750023EA
:102C4000BB7500237B752F4B1B7E012B01D102230B
:102C500054E02C4B01221A764CF2503000F0A8F8C8
:102C60000346FB75FB7D002B44D1FB68012B02D191
:102C700001237B7507E0FB68022B02D102237B75E1
:102C800001E004237B750023BB752DE0BB7D5A005A
:102C9000BB6802EB030EBB7D1901D7E90023C1F12C
:102CA0002006A1F1200022FA01F403FA06F63443CB
:102CB00023FA00F0044323FA01F5A3B21946704643
:102CC00000F05AF84CF2503000F072F80346FB75F1
:102CD0000D4A0D4B1B6923F001031361FB7D002B93
:102CE00007D1BB7D0133BB75BA7D7B7D9A42CDD3C5
:102CF00000E000BF034B00221A76FB7D18461C370C
:102D0000BD46F0BDB00700200020024080B483B073
:102D100000AF0023FB710D4B1B6903F08003002BF8
:102D20000DD00A4B0A4A5A60084B0A4A5A60074BB0
:102D30001B6903F08003002B01D00123FB71FB7999
:102D400018460C37BD4680BC704700BF00200240CB
:102D500023016745AB89EFCD80B400AF054A054B31
:102D60001B6943F08003136100231846BD4680BCF5
:102D7000704700BF0020024080B483B000AF78608D
:102D80000B467B80084B0022DA61084A074B1B691F
:102D900043F0010313617B687A881A8000BF0C3707
:102DA000BD4680BC704700BFB00700200020024035
:102DB00080B584B000AF7860FFF7D0F8F86010E01D
:102DC0007B68B3F1FF3F0CD07B68002B07D0FFF787
:102DD000C5F80246FB68D21A7B689A4201D90323E0
:102DE00025E0154BDB6803F00103002BE8D1124B03
:102DF000DB6803F02003002B02D00F4B2022DA60A7
:102E00000D4BDB6803F01003002B0BD10A4BDB6981
:102E100003F00103002B05D1074BDB6803F004032B
:102E2000002B03D000F00AF8012300E0002318462D
:102E30001037BD4680BD00BF0020024080B483B083
:102E400000AF00237B60234BDB6803F01003002BF3
:102E500009D0214BDB6943F002031F4AD3617B6831
:102E600043F010037B601B4BDB6803F00403002B73
:102E700009D0194BDB6943F00103174AD3617B6822
:102E800043F004037B60134BDB6903F00103002B69
:102E90000BD0114BDB6943F004030F4AD3610D4A99
:102EA0000C4BDB6923F00103D3617B6840F2011214
:102EB000934206D1074A074BDB6923F00103D36134
:102EC00002E0044A7B68D36000BF0C37BD4680BC7B
:102ED000704700BF00200240B007002080B584B0DA
:102EE00000AF786039600123FB730023BB602F4B78
:102EF0001B7E012B01D1022353E02C4B01221A76B9
:102F00007B681B68022B16D14CF25030FFF750FF44
:102F10000346002B41D1012000F04CF84CF2503018
:102F2000FFF746FF0346FB73214A214B1B6923F041
:102F30000403136131E04CF25030FFF739FF0346D0
:102F4000002B2AD13B684FF0FF321A607B689B68E8
:102F5000BB6019E0B86800F049F84CF25030FFF758
:102F600027FF0346FB73124A114B1B6923F0020330
:102F70001361FB7B002B03D03B68BA681A600CE03E
:102F8000BB6803F58063BB607B68DB689A027B6883
:102F90009B681A44BB689A42DCD8044B00221A761C
:102FA000FB7B18461037BD4680BD00BFB007002030
:102FB0000020024080B483B000AF7860094B00224B
:102FC000DA61094A084B1B6943F004031361064A9E
:102FD000054B1B6943F04003136100BF0C37BD462E
:102FE00080BC7047B00700200020024080B483B04E
:102FF00000AF78600B4B0022DA610B4A0A4B1B6969
:1030000043F002031361084A7B685361064A064B8A
:103010001B6943F04003136100BF0C37BD4680BC01
:10302000704700BFB00700200020024080B48BB082
:1030300000AF7860396000237B6200233B6227E1A8
:1030400001227B6A02FA03F3FB613B681A68FB69A1
:103050001340BB61BA69FB699A4240F016813B6834
:103060005B68122B34D0122B0DD8022B2BD0022BE5
:1030700004D8002B31D0012B1CD048E0032B43D0C7
:10308000112B1BD043E0894A934226D0874A9342B2
:1030900006D8874A934220D0864A93421DD036E014
:1030A000854A934219D0854A934216D0844A934266
:1030B00013D02CE03B68DB683B6228E03B68DB68B0
:1030C00004333B6223E03B68DB6808333B621EE06D
:1030D0003B68DB680C333B6219E03B689B68002B64
:1030E00002D104233B6212E03B689B68012B05D1AF
:1030F00008233B627B68FA691A6108E008233B6297
:103100007B68FA695A6102E000233B6200BFBB6939
:10311000FF2B01D87B6801E07B6804337B61BB69CE
:10312000FF2B02D87B6A9B0002E07B6A083B9B0076
:103130003B617B691A680F213B6901FA03F3DB43AA
:103140001A40396A3B6901FA03F31A437B691A6032
:103150003B685B6803F08053002B00F09680594A6F
:10316000584B9B6943F001039361564B9B6903F0F5
:103170000103BB60BB68544A7B6A9B08023352F868
:103180002330FB607B6A03F003039B000F2202FAEB
:1031900003F3DB43FA681340FB607B684B4A9342BE
:1031A00013D07B684A4A93420DD07B68494A9342C8
:1031B00007D07B68484A934201D1032306E00423E9
:1031C00004E0022302E0012300E000237A6A02F017
:1031D000030292009340FA681343FB603A497B6A0A
:1031E0009B080233FA6841F823203B685B6803F4CC
:1031F0008033002B06D03949384B1A68BB6913431A
:103200000B6006E03549354B1A68BB69DB43134058
:103210000B603B685B6803F40033002B06D02F493A
:103220002E4B5A68BB6913434B6006E02B492B4B6E
:103230005A68BB69DB4313404B603B685B6803F42F
:103240008013002B06D02549244B9A68BB69134391
:103250008B6006E02149214B9A68BB69DB43134030
:103260008B603B685B6803F40013002B06D01B499E
:103270001A4BDA68BB691343CB6006E01749174B5A
:10328000DA68BB69DB431340CB607B6A01337B6246
:103290003B681A687B6A22FA03F3002B7FF4D0AEF6
:1032A00000BF2C37BD4680BC704700BF0000211016
:1032B0000000111000001210000031100000321048
:1032C00000002210001002400000014000080140F0
:1032D000000C0140001001400014014000040140B6
:1032E00080B483B000AF78600B467B8013467B7060
:1032F0007B78002B03D07A887B681A6103E07B8897
:103300001A047B681A6100BF0C37BD4680BC704749
:1033100080B485B000AF78600B467B807B68DB684B
:10332000FB607A88FB6813401A04FB68D9437B88EA
:103330000B401A437B681A6100BF1437BD4680BC3E
:103340007047000090B585B000AF78607B68002BB7
:1033500001D101231FE17B6893F83D30DBB2002BE4
:1033600006D17B68002283F83C207868FDF742FE96
:103370007B68242283F83D207B681B687A6812688A
:10338000126822F001021A607B681B687A68126872
:10339000126842F400421A607B681B687A681268FF
:1033A000126822F400421A6003F016F8F8607B6895
:1033B0005B687B4A934207D8FB687A4A934294BF82
:1033C00001230023DBB206E0FB68774A934294BFF7
:1033D00001230023DBB2002B01D00123DBE0FB68DB
:1033E000724AA2FB03239B0CBB607B681B687A6854
:1033F0001268526822F03F01BA680A435A607B683B
:103400001A687B681B681B6A23F03F017B685B6856
:103410006348834202D8BB68013309E0BB684FF4BC
:10342000967000FB03F36248A0FB03039B09013382
:103430000B4313627B6818687B681B68DB6923F4A5
:103440004F4222F0FF027B685B6855498B420DD8E2
:10345000FB68591E7B685B685B00B1FBF3F30133CB
:10346000C3F30B03042B38BF04234FE07B689B6836
:10347000002B11D1FB685C1E7B6859680B465B0012
:103480000B44B4FBF3F30133C3F30B03002B0CBF6A
:1034900001230023DBB212E0FB685C1E7B685968E5
:1034A0000B469B000B4499000B44B4FBF3F3013330
:1034B000C3F30B03002B0CBF01230023DBB2002B53
:1034C00001D0012322E07B689B68002B0ED1FB68B2
:1034D0005C1E7B6859680B465B000B44B4FBF3F33E
:1034E0000133C3F30B0343F400430FE0FB685C1E9E
:1034F0007B6859680B469B000B4499000B44B4FB56
:10350000F3F30133C3F30B0343F440431343C361A9
:103510007B681B687A681268126822F0C0017A68BA
:10352000D0697A68126A02430A431A607B681A6893
:103530007B681B689B6823F4034323F0FF037968CF
:1035400008697968C96801430B4393607B681B680D
:103550007A681268D26822F0FF017A6850697A6846
:10356000926902430A43DA607B681B687A681268D2
:10357000126842F001021A607B6800221A647B68BC
:10358000202283F83D207B6800221A637B6800229A
:1035900083F83E20002318461437BD4690BD00BF77
:1035A000A08601007F841E00FF083D0083DE1B43D0
:1035B000D34D621080B588B002AFF8607A601A46C9
:1035C0000B467B8113463B81FEF7C8FC7861FB68A4
:1035D00093F83D30DBB2202B40F0E0807B69009314
:1035E000192301227049F86802F0F8F80346002B0D
:1035F00001D00223D3E0FB6893F83C30012B01D1CA
:103600000223CCE0FB68012283F83C20FB681B68A6
:103610001B6803F00103012B07D0FB681B68FA68E5
:103620001268126842F001021A60FB681B68FA68AF
:103630001268126822F400621A60FB68212283F883
:103640003D20FB68102283F83E20FB6800221A64AC
:10365000FB687A685A62FB683A895A85FB685B8D19
:103660009AB2FB681A85FB68504ADA6279897B69ED
:103670003A6AF86801F0BAFE0346002B01D0012334
:103680008DE000233B61FB681B685B693B61FB6865
:103690001B689B693B613B6966E07A69396AF86837
:1036A00002F072F90346002B0DD0FB681B6C042B53
:1036B00007D1FB681B68FA681268126842F400724E
:1036C0001A6001236BE0FB681B68FA68526A127883
:1036D0001A61FB685B6A5A1CFB685A62FB685B8D67
:1036E0009BB2013B9AB2FB685A85FB681B8D013B7C
:1036F0009AB2FB681A85FB681B685B6903F00403D8
:10370000042B1BD1FB681B8D002B17D0FB681B689B
:10371000FA68526A12781A61FB685B6A5A1CFB6885
:103720005A62FB685B8D9BB2013B9AB2FB685A857B
:10373000FB681B8D013B9AB2FB681A857A69396A6E
:10374000F86802F062F90346002B0DD0FB681B6C91
:10375000042B07D1FB681B68FA681268126842F4F0
:1037600000721A6001231AE0FB681B8D002B94D1B4
:10377000FB681B68FA681268126842F400721A60EB
:10378000FB68202283F83D20FB68002283F83E205E
:10379000FB68002283F83C20002300E00223184647
:1037A0001837BD4680BD00BF020010000000FFFFBB
:1037B00080B58CB002AFF8607A601A460B467B8108
:1037C00013463B8100233B62FEF7C8FB7862FB682F
:1037D00093F83D30DBB2202B40F038827B6A0093B7
:1037E000192301227E49F86801F0F8FF0346002BF7
:1037F00001D002232BE2FB6893F83C30012B01D16E
:10380000022324E2FB68012283F83C20FB681B684A
:103810001B6803F00103012B07D0FB681B68FA68E3
:103820001268126842F001021A60FB681B68FA68AD
:103830001268126822F400621A60FB68222283F880
:103840003D20FB68102283F83E20FB6800221A64AA
:10385000FB687A685A62FB683A895A85FB685B8D17
:103860009AB2FB681A85FB685E4ADA6279897B6ADC
:103870003A6BF86801F03CFE0346002B01D00123AF
:10388000E5E1FB681B8D002B13D10023FB61FB6876
:103890001B685B69FB61FB681B689B69FB61FB69DB
:1038A000FB681B68FA681268126842F400721A60BA
:1038B000B9E1FB681B8D012B1DD1FB681B68FA6801
:1038C0001268126822F480621A6072B60023BB612B
:1038D000FB681B685B69BB61FB681B689B69BB611C
:1038E000BB69FB681B68FA681268126842F40072D0
:1038F0001A6062B697E1FB681B8D022B1DD1FB6835
:103900001B68FA681268126842F400621A6072B6A4
:1039100000237B61FB681B685B697B61FB681B683C
:103920009B697B617B69FB681B68FA681268126897
:1039300022F480621A6062B675E1FB681B68FA685F
:103940001268126842F480621A6000233B61FB68CF
:103950001B685B693B61FB681B689B693B613B695A
:1039600061E1FB681B8D032B00F21A81FB681B8D44
:10397000012B23D17A6A396BF86802F0B9F8034653
:10398000002B01D0012362E1FB685B6AFA681268D0
:103990001269D2B21A70FB685B6A5A1CFB685A62E1
:1039A000FB681B8D013B9AB2FB681A85FB685B8D37
:1039B0009BB2013B9AB2FB685A8534E1FB681B8DD0
:1039C000022B50D17B6A00933B6B00220649F868BA
:1039D00001F004FF0346002B08D0012337E100BFAC
:1039E000020010000000FFFF0400010072B6FB6837
:1039F0001B68FA681268126842F400721A60FB6869
:103A00005B6AFA6812681269D2B21A70FB685B6A64
:103A10005A1CFB685A62FB681B8D013B9AB2FB681B
:103A20001A85FB685B8D9BB2013B9AB2FB685A8595
:103A300062B6FB685B6AFA6812681269D2B21A70E1
:103A4000FB685B6A5A1CFB685A62FB681B8D013B72
:103A50009AB2FB681A85FB685B8D9BB2013B9AB2F8
:103A6000FB685A85DFE07B6A00933B6B00227A4952
:103A7000F86801F0B3FE0346002B01D00123E6E015
:103A8000FB681B68FA681268126822F480621A6088
:103A900072B6FB685B6AFA6812681269D2B21A7071
:103AA000FB685B6A5A1CFB685A62FB681B8D013B12
:103AB0009AB2FB681A85FB685B8D9BB2013B9AB298
:103AC000FB685A85654B1B68DB08654AA2FB03232C
:103AD0001A0A13469B001344DA00D31A3B623B6A6E
:103AE000013B3B623B6A002B17D1FB6800221A6343
:103AF000FB68202283F83D20FB68002283F83E20EB
:103B0000FB681B6C43F02002FB681A6462B6FB681A
:103B1000002283F83C20012399E0FB681B685B6965
:103B200003F00403042BDAD1FB681B68FA681268FF
:103B3000126842F400721A60FB685B6AFA681268E5
:103B40001269D2B21A70FB685B6A5A1CFB685A622F
:103B5000FB681B8D013B9AB2FB681A85FB685B8D85
:103B60009BB2013B9AB2FB685A8562B6FB685B6AFE
:103B7000FA6812681269D2B21A70FB685B6A5A1C42
:103B8000FB685A62FB681B8D013B9AB2FB681A8581
:103B9000FB685B8D9BB2013B9AB2FB685A8542E0A1
:103BA0007A6A396BF86801F0A3FF0346002B01D055
:103BB00001234CE0FB685B6AFA6812681269D2B2B2
:103BC0001A70FB685B6A5A1CFB685A62FB681B8DA3
:103BD000013B9AB2FB681A85FB685B8D9BB2013B87
:103BE0009AB2FB685A85FB681B685B6903F00403A3
:103BF000042B18D1FB685B6AFA6812681269D2B2AA
:103C00001A70FB685B6A5A1CFB685A62FB681B8D62
:103C1000013B9AB2FB681A85FB685B8D9BB2013B46
:103C20009AB2FB685A85FB681B8D002B7FF499AE16
:103C3000FB68202283F83D20FB68002283F83E20A9
:103C4000FB68002283F83C20002300E00223184692
:103C50002837BD4680BD00BF0400010000000020E1
:103C600089B5F81480B588B000AF78600023BB61D7
:103C70007B681B685B687B617B68DB6A3B617B6898
:103C800093F83E30FB737B6893F83D30BB73FB7B4E
:103C9000102B03D0FB7B402B40F0B1807B681B686E
:103CA0009B69BB617B681B685B69FB61FB6903F017
:103CB0000103002B0DD13B69B3F52A0F03D03B69FB
:103CC000B3F12A4F01D1012300E00023012B00F0C2
:103CD0001481FB6903F00103002B0BD07B6903F413
:103CE0000073002B06D0786801F086FF786800F03A
:103CF0005FFD83E0FB6903F00803002B08D07B69BC
:103D000003F40073002B03D0786800F0D4FD75E055
:103D1000FB6903F00203002B08D07B6903F40073F6
:103D2000002B03D0786800F0EFFD67E0BB6903F07B
:103D30000403002B36D07B681B685B6803F40063C8
:103D4000B3F5006F00F0DB80FB6903F08003002B0C
:103D50000DD07B6903F48063002B08D0FB6903F06E
:103D60000403002B03D1786800F0E1F946E0FB6919
:103D700003F00403002B00F0C2807B6903F400739E
:103D8000002B00F0BC80BB7B212B03D1786800F0B6
:103D90006AFAB4E0FB7B402B40F0B180786800F019
:103DA000D8FAACE07B681B685B6803F40063B3F58A
:103DB000006F00F0A480FB6903F04003002B0DD0DE
:103DC0007B6903F48063002B08D0FB6903F00403D4
:103DD000002B03D1786800F050FB0FE0FB6903F083
:103DE0000403002B00F08B807B6903F40073002B2D
:103DF00000F08580786800F0F1FB80E07FE07B6870
:103E00001B6C002B04D07B681B685B69FB6107E0BF
:103E10007B681B689B69BB617B681B685B69FB6196
:103E2000FB6903F00203002B11D07B6903F40073DC
:103E3000002B0CD07B681B6C002B03D07B681B68AD
:103E40009B69BB61B969786800F0B5FF5AE0FB690E
:103E500003F01003002B08D07B6903F40073002BE0
:103E600003D0786800F0F0FF4CE0BB7B212B02D040
:103E7000BB7B292B20D1FB6903F08003002B0DD0E5
:103E80007B6903F48063002B08D0FB6903F0040313
:103E9000002B03D1786800F0D2FE32E0FB6903F01A
:103EA0000403002B2DD07B6903F40073002B28D072
:103EB000786800F001FF24E0FB6903F04003002B69
:103EC0000DD07B6903F48063002B08D0FB6903F0FD
:103ED0000403002B03D1786800F00EFF12E0FB69A9
:103EE00003F00403002B0DD07B6903F40073002B57
:103EF00008D0786800F03EFF04E000BF02E000BF99
:103F000000E000BF2037BD4680BD80B58AB000AF5D
:103F100078607B681B685B693B627B681B685B68D9
:103F2000FB6100237B627B6893F83E30FB763B6A43
:103F300003F48073002B15D0FB6903F48073002B0E
:103F400010D07B6A43F001037B627B681B686FF4CF
:103F500080725A617B681B687A681268126842F442
:103F600000421A603B6A03F40073002B0DD0FB691A
:103F700003F48073002B08D07B6A43F002037B625A
:103F80007B681B686FF400725A613B6A03F48063BC
:103F9000002B3ED0FB6903F48073002B39D0FB7EED
:103FA000BB767B685B8D9BB27B617B6893F83D3011
:103FB000FB747B681B6BFB60BB7E202B12D17B6983
:103FC000002B0FD1FB7C212B08D0FB7C292B05D0AB
:103FD000FB7C282B06D1FB68212B03D1786801F0EC
:103FE00063F816E07B681B686FF480625A617B6A35
:103FF00043F004037B62FB7E102B02D0FB7E402B40
:1040000007D17B681B687A681268126842F40072F4
:104010001A603B6A03F40063002B0DD0FB6903F4C4
:104020008073002B08D07B6A43F008037B627B68B7
:104030001B686FF400625A617B6A002B08D07B68B2
:104040001A6C7B6A1A437B681A64786801F09CF8E2
:1040500000BF2837BD4680BD80B483B000AF786014
:1040600000BF0C37BD4680BC704780B483B000AF42
:10407000786000BF0C37BD4680BC704780B483B009
:1040800000AF786000BF0C37BD4680BC704780B47D
:1040900083B000AF786000BF0C37BD4680BC70476E
:1040A00080B483B000AF78600B46FB7013463B8052
:1040B00000BF0C37BD4680BC704780B483B000AFF2
:1040C000786000BF0C37BD4680BC704780B483B0B9
:1040D00000AF786000BF0C37BD4680BC704780B42D
:1040E00083B000AF786000BF0C37BD4680BC70471E
:1040F00080B483B000AF786000BF0C37BD4680BC91
:10410000704780B483B000AF786000BF0C37BD4605
:1041100080BC704780B483B000AF78607B6893F850
:104120003D30DBB218460C37BD4680BC704780B5C9
:1041300084B000AF78607B6893F83D30FB737B6898
:1041400093F83E30BB737B68DB6ABB607B681B8D7A
:10415000002B50D1FB7B212B4DD1BB68082B1DD0F0
:10416000BB68202B1AD0BB6813F5803F16D07B6844
:104170001B687A681268526822F4E0625A607B68B1
:1041800011221A637B68002283F83E207B6820227C
:1041900083F83D207868FFF75FFF60E07B681B686D
:1041A0007A681268526822F4E0625A607B681B6881
:1041B0007A681268126842F400721A607B68002202
:1041C0001A637B68202283F83D207B6893F83E3099
:1041D000DBB2402B07D17B68002283F83E20786851
:1041E000FFF774FF3BE07B68002283F83E2078688D
:1041F000FFF732FF33E0FB7B212B05D0BB7B402B4D
:104200002DD1FB7B222B2AD17B685B8D9BB2002BAF
:1042100008D17B681B687A681268526822F4806251
:104220005A601CE07B6893F83E30DBB2402B03D130
:10423000786800F08EF812E07B681B687A68526A32
:1042400012781A617B685B6A5A1C7B685A627B68C9
:104250005B8D9BB2013B9AB27B685A85FFE700BF3A
:104260001037BD4680BD80B584B000AF78607B68F4
:10427000DB6AFB607B6893F83D30DBB2212B64D1B5
:104280007B685B8D9BB2002B12D07B681B687A68C1
:10429000526A12781A617B685B6A5A1C7B685A62A0
:1042A0007B685B8D9BB2013B9AB27B685A854CE080
:1042B000FB68082B1DD0FB68202B1AD0FB6813F578
:1042C000803F16D07B681B687A681268526822F4B7
:1042D000E0625A607B6811221A637B68002283F8CF
:1042E0003E207B68202283F83D207868FFF7B4FEEB
:1042F0002BE07B681B687A681268526822F4E062DF
:104300005A607B681B687A681268126842F400720F
:104310001A607B6800221A637B68202283F83D20A4
:104320007B6893F83E30DBB2402B07D17B680022DC
:1043300083F83E207868FFF7C9FE06E07B6800221C
:1043400083F83E207868FFF787FE00BF1037BD4630
:1043500080BD80B584B000AF78607B6893F83D3055
:10436000FB737B681B6D002B1DD17B68DB6C012B05
:104370000BD17B681B687A68926CD2B21A617B6839
:104380001B6D9A1C7B681A6573E07B681B687A68F2
:10439000926C92B21212D2B21A617B681B6D5A1CD7
:1043A0007B681A6565E07B681B6D012B0BD17B6810
:1043B0001B687A68926CD2B21A617B681B6D5A1CBA
:1043C0007B681A6555E07B681B6D022B51D1FB7B26
:1043D000222B0DD17B681B687A681268126842F440
:1043E00080721A607B681B6D5A1C7B681A6540E0FE
:1043F0007B685B8D9BB2002B15D0FB7B212B12D1F0
:104400007B681B687A68526A12781A617B685B6AFB
:104410005A1C7B685A627B685B8D9BB2013B9AB2E7
:104420007B685A8525E07B685B8D9BB2002B20D191
:10443000FB7B212B1DD17B681B687A681268526850
:1044400022F4E0625A607B681B687A68126812681E
:1044500042F400721A607B6800221A637B68202293
:1044600083F83D207B68002283F83E207868FFF7C0
:104470002DFE00BF1037BD4680BD80B584B000AFB3
:1044800078607B6893F83D30DBB2222B40F0A2804D
:104490007B685B8D9BB2FB60FB68032B21D97B683B
:1044A0005B6A7A6812681269D2B21A707B685B6ABA
:1044B0005A1C7B685A627B685B8D9BB2013B9AB247
:1044C0007B685A857B685B8D9BB2032B40F08280B2
:1044D0007B681B687A681268526822F480625A60AE
:1044E00078E07B68DB6A022B74D0FB68012B02D07A
:1044F000FB68002B6ED1786801F0C8FA0346002BE8
:1045000042D17B681B687A681268126822F4806264
:104510001A607B681B687A681268526822F4E0624D
:104520005A607B685B6A7A6812681269D2B21A7044
:104530007B685B6A5A1C7B685A627B685B8D9BB2A6
:10454000013B9AB27B685A857B68202283F83D2024
:104550007B6893F83E30DBB2402B0AD17B680022A7
:1045600083F83E207B6800221A637868FFF7B7FD66
:1045700030E07B68002283F83E207B6812221A63B9
:104580007868FFF772FD25E07B681B687A6812681F
:10459000526822F4E0625A607B685B6A7A6812684B
:1045A0001269D2B21A707B685B6A5A1C7B685A62C5
:1045B0007B685B8D9BB2013B9AB27B685A857B68B6
:1045C000202283F83D207B68002283F83E20786813
:1045D000FFF78EFD00BF1037BD4680BD80B584B0AB
:1045E00000AF78607B68DB6AFB607B685B8D9BB2A9
:1045F000042B1BD17B681B687A681268526822F40E
:1046000080625A607B685B6A7A6812681269D2B20B
:104610001A707B685B6A5A1C7B685A627B685B8D88
:104620009BB2013B9AB27B685A85BDE07B685B8D8B
:104630009BB2032B29D17B681B687A681268526889
:1046400022F480625A60FB68042B0AD0FB68022BBC
:1046500007D07B681B687A681268126822F480624F
:104660001A607B685B6A7A6812681269D2B21A7043
:104670007B685B6A5A1C7B685A627B685B8D9BB265
:10468000013B9AB27B685A858EE07B685B8D9BB25A
:10469000022B76D1FB68012B02D0FB68102B08D1CE
:1046A0007B681B687A681268126822F480621A605C
:1046B00019E0FB68042B02D0FB68022B08D17B6851
:1046C0001B687A681268126842F480621A600AE015
:1046D000FB68102B07D07B681B687A681268126829
:1046E00042F400721A607B685B6A7A681268126929
:1046F000D2B21A707B685B6A5A1C7B685A627B680C
:104700005B8D9BB2013B9AB27B685A857B685B6A82
:104710007A6812681269D2B21A707B685B6A5A1C96
:104720007B685A627B685B8D9BB2013B9AB27B6867
:104730005A857B681B687A681268526822F4407256
:104740005A607B68202283F83D207B6893F83E30D6
:10475000DBB2402B0AD17B68002283F83E207B68C5
:1047600000221A637868FFF7BAFC1DE07B6800221C
:1047700083F83E207B6812221A637868FFF775FC85
:1047800012E07B685B6A7A6812681269D2B21A70AA
:104790007B685B6A5A1C7B685A627B685B8D9BB244
:1047A000013B9AB27B685A8500BF1037BD4680BD79
:1047B00080B483B000AF78607B6893F83E30DBB2A2
:1047C000402B16D17B681B6D002B08D17B681B68C2
:1047D0007A68526CD2B202F0FE021A6166E07B681F
:1047E0001B687A68526CD2B242F00102D2B21A61EE
:1047F0005CE07B681B69B3F5804F32D17B6893F82E
:104800003D30DBB2212B08D17B681B687A68526C83
:10481000D2B202F0FE021A6108E07B681B687A6877
:10482000526CD2B242F00102D2B21A617B685B6B69
:10483000002B04D07B685B6B9B6A002B08D17B68E4
:104840009B6B002B32D07B689B6B9B6A002B2DD01F
:104850007B681B687A681268526842F400625A608A
:1048600024E07B681B6D002B0ED17B681B687A6887
:10487000526C92B2D211D2B202F00602D2B262F0FF
:104880000F02D2B21A6111E07B681B6D012B0DD1B2
:104890007B681B687A68526C92B2D211D2B202F075
:1048A0000602D2B262F00E02D2B21A6100BF0C3719
:1048B000BD4680BC704780B483B000AF78607B6831
:1048C0001B687A68526CD2B21A617B685B6B002BF2
:1048D00004D07B685B6B9B6A002B08D17B689B6B69
:1048E000002B0CD07B689B6B9B6A002B07D07B68EE
:1048F0001B687A681268526842F400625A6000BF0E
:104900000C37BD4680BC704780B491B000AF786072
:104910007B6893F83E3087F83F307B68DB6ABB6387
:104920007B681B6B7B637B6893F83D30DBB2222B8B
:1049300040F074817B681B6D002B0FD197F83F30DE
:10494000402B0BD100233B637B681B685B693B6397
:104950007B681B689B693B633B6B6BE17B681B6DF2
:10496000002B1DD17B681B69B3F5404F18D1002384
:10497000FB627B681B685B69FB627B681B689B69E9
:10498000FB62FB6A7B681B687A681268126842F4F3
:1049900080721A607B681B6D5A1C7B681A6549E13E
:1049A0007B685B8D9BB2002B13D10023BB627B68BD
:1049B0001B685B69BB627B681B689B69BB62BB6AE7
:1049C0007B681B687A681268126842F400721A6089
:1049D00020E17B685B8D9BB2012B40F08A80BB6B32
:1049E00013F5803F37D17B681B687A6812681268BC
:1049F00022F480621A607B681B685B6803F40063C2
:104A0000B3F5006F13D17B681B687A68126812686F
:104A100022F480621A6000237B627B681B685B69FA
:104A20007B627B681B689B697B627B6AF2E0002388
:104A30003B627B681B685B693B627B681B689B69A8
:104A40003B623B6A7B681B687A681268126842F4B2
:104A500000721A60DEE0BB6B082B2ED0BB6B202BE4
:104A60002BD07B6B122B02D1BB6B012B25D1BB6BE7
:104A7000042B0ED0BB6B022B0BD0BB6B102B08D0C2
:104A80007B681B687A681268126822F480621A6078
:104A900007E07B681B687A681268126842F48062DB
:104AA0001A600023FB617B681B685B69FB617B68A4
:104AB0001B689B69FB61FB69ACE07B681B687A68DB
:104AC0001268126822F480621A600023BB617B685E
:104AD0001B685B69BB617B681B689B69BB61BB69C9
:104AE0007B681B687A681268126842F400721A6068
:104AF00090E07B685B8D9BB2022B58D1BB6B042B83
:104B000021D0BB6B022B1ED0BB6B102B1BD07B6844
:104B10001B687A681268126842F400621A60002307
:104B20007B617B681B685B697B617B681B689B6939
:104B30007B617B697B681B687A681268126822F463
:104B400080621A6012E07B681B687A6812681268DB
:104B500042F480621A6000233B617B681B685B69DA
:104B60003B617B681B689B693B613B697B681B6899
:104B70005B6803F40063B3F5006F4BD1BB6B13F5B7
:104B8000803F0BD0BB6B012B08D0BB6B082B05D033
:104B9000BB6B102B02D0BB6B202B3BD17B681B68FF
:104BA0007A681268526842F480525A6032E07B6838
:104BB0001B687A681268126842F480621A607B6827
:104BC0001B685B6803F40063B3F5006F17D1BB6B20
:104BD00013F5803F0BD0BB6B012B08D0BB6B082BB0
:104BE00005D0BB6B102B02D0BB6B202B07D17B6891
:104BF0001B687A681268526842F480525A60002337
:104C0000FB607B681B685B69FB607B681B689B695A
:104C1000FB60FB687B6800221A650BE00023BB6029
:104C20007B681B685B69BB607B681B689B69BB60BA
:104C3000BB68FFE700BF4437BD4680BC704780B506
:104C400084B000AF78607B6893F83D30FB737B687D
:104C50005B8D9BB2002B2BD07B681B687A68526AF5
:104C600012781A617B685B6A5A1C7B685A627B689F
:104C70005B8D9BB2013B9AB27B685A857B685B8DEA
:104C80009BB2002B14D1FB7B292B11D17B681B68B5
:104C90007A681268526822F480625A607B68212226
:104CA0001A637B68282283F83D207868FFF7E6F9CD
:104CB00000BF1037BD4680BD80B483B000AF7860C0
:104CC0007B685B8D9BB2002B11D07B681B687A6878
:104CD000526A12781A617B685B6A5A1C7B685A6256
:104CE0007B685B8D9BB2013B9AB27B685A8500BFA3
:104CF0000C37BD4680BC704780B584B000AF78608B
:104D00007B6893F83D30FB737B685B8D9BB2002B17
:104D10002CD07B685B6A7A6812681269D2B21A700A
:104D20007B685B6A5A1C7B685A627B685B8D9BB2AE
:104D3000013B9AB27B685A857B685B8D9BB2002BE6
:104D400014D1FB7B2A2B11D17B681B687A6812680F
:104D5000526822F480625A607B6822221A637B6860
:104D6000282283F83D207868FFF791F900BF1037BB
:104D7000BD4680BD80B483B000AF78607B685B8D3A
:104D80009BB2002B12D07B685B6A7A68126812694A
:104D9000D2B21A707B685B6A5A1C7B685A627B6865
:104DA0005B8D9BB2013B9AB27B685A8500BF0C3782
:104DB000BD4680BC704780B584B000AF7860396074
:104DC0000023FB737B6893F83D30DBB203F02803CC
:104DD000282B25D17B681B687A681268526822F4F8
:104DE00080625A603B6803F00403002B01D1012369
:104DF000FB733B6803F08003002B03D17B68DB6807
:104E0000BB8102E07B689B69BB817B68002283F8E1
:104E10003C20BA89FB7B19467868FFF741F90EE020
:104E20000023BB607B681B685B69BB607B681B6899
:104E30009B69BB60BB687B68002283F83C2000BF95
:104E40001037BD4680BD000080B584B000AF7860EB
:104E50007B6893F83D30FB737B681B687A68126847
:104E6000526822F4E0625A600023BB607B681B68D2
:104E70005B69BB607B681B687A681268126842F0E5
:104E800001021A60BB687B681B687A681268126846
:104E900022F480621A607B681B685B6803F400631D
:104EA000B3F5006F72D1FB7B222B02D0FB7B2A2B48
:104EB00035D17B689B6B1B685B689AB27B685A85AF
:104EC0007B685B8D9BB2002B05D07B681B6C43F02D
:104ED00004027B681A647B681B687A6812685268EF
:104EE00022F400625A607B689B6B1846FDF792FEC5
:104EF0000346012B49D07B689B6B694A5A637B68E8
:104F00009B6B1846FDF70AFE0346002B3DD07B68DD
:104F10009B6B5B6B7A68926B1046984735E07B68B9
:104F20005B6B1B685B689AB27B685A857B685B8D9C
:104F30009BB2002B05D07B681B6C43F004027B689E
:104F40001A647B681B687A681268526822F40062EF
:104F50005A607B685B6B1846FDF75CFE0346012BCD
:104F600014D07B685B6B4E4A5A637B685B6B184658
:104F7000FDF7D4FD0346002B08D07B685B6B5B6BB1
:104F80007A68526B1046984700E000BF7B685B8DE3
:104F90009BB2002B3ED07B681B685B6903F0040367
:104FA000042B12D17B685B6A7A6812681269D2B2EC
:104FB0001A707B685B6A5A1C7B685A627B685B8DDF
:104FC0009BB2013B9AB27B685A857B681B685B6920
:104FD00003F04003402B12D17B685B6A7A68126849
:104FE0001269D2B21A707B685B6A5A1C7B685A627B
:104FF0007B685B8D9BB2013B9AB27B685A857B686C
:105000005B8D9BB2002B05D07B681B6C43F00402C8
:105010007B681A647B681B6C002B03D0786800F0F7
:10502000B3F839E0FB7B2A2B09D17B6800221A6395
:105030007B68282283F83D207868FFF728F87B6892
:1050400093F83D30DBB2282B11D17B68154ADA6228
:105050007B6800221A637B68202283F83D207B68EE
:10506000002283F83E207868FFF727F814E07B6879
:105070001B6B222B02D0FB7B222B0DD17B680022E5
:105080001A637B68202283F83D207B68002283F826
:105090003E207868FEF7FBFF00BF1037BD4680BD9D
:1050A0008D5600080000FFFF80B584B000AF786027
:1050B0007B6893F83D30FB737B68DB6ABB60BB6841
:1050C000082B02D0BB68202B29D1FB7B282B26D1B3
:1050D0007B682C4ADA627B681B687A6812685268BF
:1050E00022F4E0625A607B681B686FF480625A6148
:1050F0007B681B687A681268126822F480621A6002
:105100007B6800221A637B68202283F83D207B683D
:10511000002283F83E207868FEF7CFFF2EE0FB7B6D
:10512000212B26D17B68174ADA627B6821221A6319
:105130007B68202283F83D207B68002283F83E2094
:105140007B681B687A681268526822F4E0625A60D1
:105150007B681B686FF480625A617B681B687A68A1
:105160001268126822F480621A607868FEF786FF7F
:1051700004E07B681B686FF480625A6100BF1037DF
:10518000BD4680BD0000FFFF80B584B000AF7860F1
:105190007B6893F83D30FB737B6893F83E30BB73BC
:1051A000BB7B102B02D0BB7B402B0AD1FB7B222B7D
:1051B00007D17B681B687A681268126822F4006263
:1051C0001A60FB7B03F02803282B07D17B680022A1
:1051D0001A637B68282283F83D2015E07B681B68F2
:1051E0005B6803F40063B3F5006F0AD0FB7B602BB0
:1051F00007D07B68202283F83D207B68002283F85B
:105200003E207B6800221A637B681B685B6803F49E
:105210000063B3F5006F61D17B681B687A68126820
:10522000526822F400625A607B685B6B93F821300D
:10523000012B20D07B685B6B6A4A5A637B685B6B8F
:105240001846FDF76BFC0346002B00F089807B6855
:105250001B687A681268126822F001021A607B6883
:10526000202283F83D207B685B6B5B6B7A68526B16
:105270001046984774E07B689B6B5A4A5A637B6878
:105280009B6B1846FDF74AFC0346002B68D07B68F1
:105290001B685B6903F04003402B0BD17B685B6AA2
:1052A0007A6812681269D2B21A707B685B6A5A1CFB
:1052B0007B685A627B681B687A681268126822F001
:1052C00001021A607B68202283F83D207B689B6B7B
:1052D0005B6B7A68926B1046984741E07B6893F865
:1052E0003D30DBB2602B25D17B68202283F83D2046
:1052F0007B6800221A647B681B685B6903F04003CB
:10530000402B0BD17B685B6A7A6812681269D2B253
:105310001A707B685B6A5A1C7B685A627B681B68E0
:105320007A681268126822F001021A607868FEF743
:10533000E8FE15E07B681B685B6903F04003402BC7
:105340000BD17B685B6A7A6812681269D2B21A70F4
:105350007B685B6A5A1C7B685A627868FEF7C8FEF5
:105360007B681B6CBB60BB6803F00103002B0ED194
:10537000BB6803F00203002B09D1BB6803F00403F0
:10538000002B04D1BB6803F00803002B07D07B6817
:105390001B687A681268526822F4E0625A607B687F
:1053A00093F83D30FB737B681B6C03F00403042B04
:1053B00013D1FB7B282B10D17B680B4ADA627B6808
:1053C00000221A637B68202283F83D207B6800223C
:1053D00083F83E207868FEF770FE00BF1037BD46A8
:1053E00080BD00BF8D5600080000FFFF80B588B06B
:1053F00002AFF8607A603B600B467B81FB68DB6A3A
:105400007B617B69082B06D07B69012B03D07B690C
:1054100013F5803F08D1FB681B68FA6812681268B0
:1054200042F480721A600BE0FB681B6B122B07D1F1
:10543000FB681B68FA681268126842F480721A608E
:105440003B6800937B6800224FF00111F86800F080
:10545000C5F90346002B0DD0FB681B681B6803F4DD
:105460008073B3F5807F03D1FB684FF400721A6438
:10547000032334E0FB681B69B3F5804F07D1FB6859
:105480001B687A89D2B202F0FE021A611BE0FB6847
:105490001B687A89D211D2B202F00602D2B262F04F
:1054A0000F02D2B21A613B687A680F49F86800F0BF
:1054B000ECF90346002B01D0012310E0FB681B68C8
:1054C0007A89D2B21A613B687A680849F86800F0B4
:1054D000DCF90346002B01D0012300E0002318462D
:1054E0001837BD4680BD00BF080001000200010062
:1054F00080B588B002AFF8607A603B600B467B8174
:10550000FB68DB6A7B61FB681B68FA6812681268DB
:1055100042F480621A607B69082B06D07B69012BFC
:1055200003D07B6913F5803F08D1FB681B68FA68DC
:105530001268126842F480721A600BE0FB681B6B01
:10554000112B07D1FB681B68FA681268126842F4D5
:1055500080721A603B6800937B6800224FF0011153
:10556000F86800F03BF90346002B0DD0FB681B6880
:105570001B6803F48073B3F5807F03D1FB684FF49D
:1055800000721A64032379E0FB681B69B3F5804F4E
:1055900008D1FB681B687A89D2B242F00102D2B20C
:1055A0001A615FE0FB681B687A89D211D2B202F0FF
:1055B0000602D2B262F00F02D2B21A613B687A6878
:1055C0003049F86800F061F90346002B01D001234F
:1055D00054E0FB681B687A89D2B21A613B687A682A
:1055E0002949F86800F051F90346002B01D0012346
:1055F00044E000233B61FB681B685B693B61FB681F
:105600001B689B693B613B69FB681B68FA68126811
:10561000126842F480721A603B6800937B68002233
:105620004FF00111F86800F0D9F80346002B0DD0B7
:10563000FB681B681B6803F48073B3F5807F03D19C
:10564000FB684FF400721A64032317E0FB681B68C1
:105650007A89D211D2B202F00602D2B262F00E0200
:10566000D2B21A613B687A680749F86800F00DF910
:105670000346002B01D0012300E000231846183711
:10568000BD4680BD080001000200010080B586B063
:1056900000AF78600023FB607B685B6A7B617B699D
:1056A00093F83D30FB744B4B1B68DB084A4AA2FB66
:1056B00003231A0A13469B001344DA00D31AFB6033
:1056C000FB68002B06D17B691B6C43F020027B69D1
:1056D0001A640AE0FB68013BFB607B691B681B687E
:1056E00003F40073B3F5007FEAD07B695B6B002B9A
:1056F00003D07B695B6B00229A627B699B6B002BFA
:1057000003D07B699B6B00229A627B691B687A6974
:105710001268126822F480621A607B6900225A853E
:105720007B695B6B002B03D07B695B6B00225A6348
:105730007B699B6B002B03D07B699B6B00225A63B8
:105740007B691B687A691268126822F001021A608C
:105750007B6993F83D30DBB2602B0ED17B69202250
:1057600083F83D207B69002283F83E207B6900227C
:105770001A647869FEF7C5FC27E0FB7C03F0280378
:10578000282B17D17B691B687A691268126842F06E
:1057900001021A607B691B687A691268126842F418
:1057A00080621A607B6900221A637B69282283F871
:1057B0003D2007E07B69202283F83D207B690022A1
:1057C00083F83E207869FEF793FC00BF1837BD468A
:1057D00080BD00BF0000002089B5F81480B584B0FA
:1057E00000AFF860B9603B601346FB7125E03B6891
:1057F000B3F1FF3F21D0FCF7B1FB0246BB69D21ADF
:105800003B689A4202D83B68002B16D1FB68002205
:105810001A63FB68202283F83D20FB68002283F88E
:105820003E20FB681B6C43F02002FB681A64FB6897
:10583000002283F83C20012323E0BB681B0CDBB271
:10584000012B0DD1FB681B685B69DA43BB68134011
:105850009BB2002B0CBF01230023DBB21A460CE0E5
:10586000FB681B689B69DA43BB6813409BB2002B43
:105870000CBF01230023DBB21A46FB799A42B6D053
:10588000002318461037BD4680BD80B584B000AFF8
:10589000F860B9607A603B6051E0FB681B685B6947
:1058A00003F48063B3F5806F23D1FB681B68FA684B
:1058B0001268126842F400721A60FB681B686FF489
:1058C00080625A61FB6800221A63FB68202283F819
:1058D0003D20FB68002283F83E20FB681B6C43F0F0
:1058E0000402FB681A64FB68002283F83C20012351
:1058F00046E07B68B3F1FF3F21D0FCF72FFB024667
:105900003B68D21A7B689A4202D87B68002B16D17A
:10591000FB6800221A63FB68202283F83D20FB68A5
:10592000002283F83E20FB681B6C43F02002FB68DA
:105930001A64FB68002283F83C20012320E0BB6846
:105940001B0CDBB2012B0CD1FB681B685B69DA43D3
:10595000BB6813409BB2002B14BF01230023DBB2B2
:105960000BE0FB681B689B69DA43BB6813409BB282
:10597000002B14BF01230023DBB2002B8DD10023A9
:1059800018461037BD4680BD80B584B000AFF860C2
:10599000B9607A602DE0F86800F000F90346002B4A
:1059A00001D001232DE0BB68B3F1FF3F21D0FCF70C
:1059B000D5FA02467B68D21ABB689A4202D8BB6805
:1059C000002B16D1FB6800221A63FB68202283F8A3
:1059D0003D20FB68002283F83E20FB681B6C43F0EF
:1059E0002002FB681A64FB68002283F83C20012334
:1059F00007E0FB681B685B6903F08003802BCAD15A
:105A0000002318461037BD4680BD80B584B000AF76
:105A1000F860B9607A602DE0F86800F0BFF80346DE
:105A2000002B01D001232DE0BB68B3F1FF3F21D053
:105A3000FCF794FA02467B68D21ABB689A4202D8F5
:105A4000BB68002B16D1FB6800221A63FB6820227A
:105A500083F83D20FB68002283F83E20FB681B6C26
:105A600043F02002FB681A64FB68002283F83C20A4
:105A7000012307E0FB681B685B6903F00403042B48
:105A8000CAD1002318461037BD4680BD80B485B00A
:105A900000AF78600023FB60134B1B68DB08134AE0
:105AA000A2FB03231A0A13469B001344FB60FB6806
:105AB000013BFB60FB68002B07D17B681B6C43F04C
:105AC00020027B681A64012308E07B681B681B685E
:105AD00003F40073B3F5007FE9D0002318461437B0
